:0A0000008316FF2390008312EA2B01
:100380005E088A005F088200C0218000840A040899
:100390005D0603190034DF0A0319DE0AC42983123B
:1003A000C400640083169C18D12983124408831664
:1003B0009B003F308312C300430883169C051C1426
:1003C00003101C1803140030031801301A08080029
:1003D000C83400342C34013490340134F434013402
:1003E0005834023420340334E8340334B034043451
:1003F000DC340534D0340734D0340734D0340734F7
:10040000FF34FF348312C50083169C18042A83121C
:10041000450883169B008312430883169A003F30D9
:100420008312C400440883169C05831203108B1B9F
:1004300003148B1383161C1555309D00AA309D00A4
:100440009C141C118312031C08008B170800073032
:10045000831299000F3083168500831285010130C5
:10046000CF218312C6004608CB000A304B02031C82
:100470003D2A0530C6004608CB004B08C60046089A
:10048000C1004108C6004608B9000330CF218312DD
:10049000C6004608CB000A304B02031C532A053025
:1004A000C6004608CB004B08C6004608C0004008FE
:1004B000C6004608B800051D8519642A0530C60027
:1004C0004608C1000530A12A0519A52AC201C20AA1
:1004D0000518862A0130BC070318BD0A0030BD0785
:1004E00007303D02D13003193C02031C862ABC01AF
:1004F000BD010130C6004608C1074108803A763E7A
:10050000031C862A0930C6004608C10085182A2B1C
:100510000130BA070318BB0A0030BB0707303B02A3
:10052000D13003193A02031C2A2BBA01BB01013056
:10053000C6004608C0074008803A763E031C2A2BB6
:100540000930C6004608C0002A2B8519DB2A023074
:10055000C6004608C2000518C22A0130BC070318AD
:10056000BD0A0030BD0707303D02D13003193C02FF
:10057000031CC22ABC01BD01FF30C6004608C107EA
:10058000C11BC10185182A2B0130BA070318BB0A09
:100590000030BB0707303B02D13003193A02031C7D
:1005A0002A2BBA01BB01FF30C6004608C007C01F96
:1005B0002A2BC0012A2B4203031D072B01303D02C9
:1005C000F53003193C02031CF22A0130C60046082C
:1005D000C1074108803A763E031CF22A0930C60062
:1005E0004608C10001303B02F53003193A02031CF2
:1005F000252B0130C6004608C0074008803A763EE9
:10060000031C252B0930C6004608C000252B0230EC
:100610004206031D252B01303D02F53003193C0233
:10062000031C182BFF30C6004608C107C11BC101BF
:1006300001303B02F53003193A02031C252BFF3031
:10064000C6004608C007C01BC001BC01BD01BA01FD
:10065000BB01C2010518642B0130B6070318B70AA5
:100660000030B7074108C6004607203E84008313C8
:100670000008C700840A0008C80037084802031DA4
:10068000432B360847020318682BBF01BF0A4108F5
:10069000C6004607203E84000008C700840A000800
:1006A000C8004708C83EC90048080318013E003E7C
:1006B000CA0037084A02031D5F2B36084902031897
:1006C000692BB601B701692B3308B7003208B600B1
:1006D000BF018518A32B0130B4070318B50A0030F9
:1006E000B5074008C6004607203E84008313000873
:1006F000C700840A0008C80035084802031D822B81
:10070000340847020318A72BBE01BE0A4008C600E2
:100710004607203E84000008C700840A0008C8007D
:100720004708C83EC90048080318013E003ECA00F9
:1007300035084A02031D9E2B340849020318A82BD2
:10074000B401B501A82B3308B5003208B400BE01CE
:100750000519851DD42B4108C600C701C61BC70358
:100760003908460647040319BF2B4108C60046084E
:10077000B9004108C6004608C300013002228312B6
:100780004008C600C701C61BC70338084606470411
:100790000319D42B4008C6004608B8004008C6001C
:1007A0004608C3000330022283123F08C60004300B
:1007B0000310C60DFF3E031DD82B3E08C7000430B2
:1007C0000310C70DFF3E031DE02B0310470D460429
:1007D00085005B2A83133A30DD000130DE00E8300B
:1007E000DF0020308400C421BA01BB01BC01BD017F
:0E07F000BE01BF01C001C101C2018301272A61
:02400E008431FB
:00000001FF
